{"abi":[{"type":"constructor","inputs":[{"name":"_asset","type":"address","internalType":"contract IERC20"}],"stateMutability":"nonpayable"},{"type":"function","name":"asset","inputs":[],"outputs":[{"name":"","type":"address","internalType":"contract IERC20"}],"stateMutability":"view"},{"type":"function","name":"deposit","inputs":[{"name":"assets","type":"uint256","internalType":"uint256"}],"outputs":[{"name":"shares","type":"uint256","internalType":"uint256"}],"stateMutability":"nonpayable"},{"type":"function","name":"owner","inputs":[],"outputs":[{"name":"","type":"address","internalType":"address"}],"stateMutability":"view"},{"type":"function","name":"previewDeposit","inputs":[{"name":"assets","type":"uint256","internalType":"uint256"}],"outputs":[{"name":"","type":"uint256","internalType":"uint256"}],"stateMutability":"view"},{"type":"function","name":"previewWithdraw","inputs":[{"name":"shares","type":"uint256","internalType":"uint256"}],"outputs":[{"name":"","type":"uint256","internalType":"uint256"}],"stateMutability":"view"},{"type":"function","name":"renounceOwnership","inputs":[],"outputs":[],"stateMutability":"nonpayable"},{"type":"function","name":"sharesOf","inputs":[{"name":"","type":"address","internalType":"address"}],"outputs":[{"name":"","type":"uint256","internalType":"uint256"}],"stateMutability":"view"},{"type":"function","name":"totalShares","inputs":[],"outputs":[{"name":"","type":"uint256","internalType":"uint256"}],"stateMutability":"view"},{"type":"function","name":"transferOwnership","inputs":[{"name":"newOwner","type":"address","internalType":"address"}],"outputs":[],"stateMutability":"nonpayable"},{"type":"function","name":"withdraw","inputs":[{"name":"shares","type":"uint256","internalType":"uint256"}],"outputs":[{"name":"assets","type":"uint256","internalType":"uint256"}],"stateMutability":"nonpayable"},{"type":"function","name":"withdrawAll","inputs":[],"outputs":[{"name":"assets","type":"uint256","internalType":"uint256"}],"stateMutability":"nonpayable"},{"type":"event","name":"Deposit","inputs":[{"name":"user","type":"address","indexed":true,"internalType":"address"},{"name":"assets","type":"uint256","indexed":false,"internalType":"uint256"},{"name":"shares","type":"uint256","indexed":false,"internalType":"uint256"}],"anonymous":false},{"type":"event","name":"OwnershipTransferred","inputs":[{"name":"previousOwner","type":"address","indexed":true,"internalType":"address"},{"name":"newOwner","type":"address","indexed":true,"internalType":"address"}],"anonymous":false},{"type":"event","name":"Withdraw","inputs":[{"name":"user","type":"address","indexed":true,"internalType":"address"},{"name":"assets","type":"uint256","indexed":false,"internalType":"uint256"},{"name":"shares","type":"uint256","indexed":false,"internalType":"uint256"}],"anonymous":false},{"type":"error","name":"InsufficientShares","inputs":[]},{"type":"error","name":"OwnableInvalidOwner","inputs":[{"name":"owner","type":"address","internalType":"address"}]},{"type":"error","name":"OwnableUnauthorizedAccount","inputs":[{"name":"account","type":"address","internalType":"address"}]},{"type":"error","name":"ReentrancyGuardReentrantCall","inputs":[]},{"type":"error","name":"SafeERC20FailedOperation","inputs":[{"name":"token","type":"address","internalType":"address"}]},{"type":"error","name":"ZeroAmount","inputs":[]},{"type":"error","name":"ZeroShares","inputs":[]}],"bytecode":{"object":"0x60a060405234801561000f575f5ffd5b5060405161130738038061130783398181016040528101906100319190610272565b33600161005061004561011060201b60201c565b61013960201b60201c565b5f01819055505f73ffffffffffffffffffffffffffffffffffffffff168173ffffffffffffffffffffffffffffffffffffffff16036100c6575f6040517f1e4fbdf70000000000000000000000000000000000000000000000000000000081526004016100bd91906102ac565b60405180910390fd5b6100d58161014260201b60201c565b508073ffffffffffffffffffffffffffffffffffffffff1660808173ffffffffffffffffffffffffffffffffffffffff1681525050506102c5565b5f7f9b779b17422d0df92223018b32b4d1fa46e071723d6817e2486d003becc55f005f1b905090565b5f819050919050565b5f5f5f9054906101000a900473ffffffffffffffffffffffffffffffffffffffff169050815f5f6101000a81548173ffffffffffffffffffffffffffffffffffffffff021916908373ffffffffffffffffffffffffffffffffffffffff1602179055508173ffffffffffffffffffffffffffffffffffffffff168173ffffffffffffffffffffffffffffffffffffffff167f8be0079c531659141344cd1fd0a4f28419497f9722a3daafe3b4186f6b6457e060405160405180910390a35050565b5f5ffd5b5f73ffffffffffffffffffffffffffffffffffffffff82169050919050565b5f61023082610207565b9050919050565b5f61024182610226565b9050919050565b61025181610237565b811461025b575f5ffd5b50565b5f8151905061026c81610248565b92915050565b5f6020828403121561028757610286610203565b5b5f6102948482850161025e565b91505092915050565b6102a681610226565b82525050565b5f6020820190506102bf5f83018461029d565b92915050565b60805161100e6102f95f395f818161038001528181610423015281816106080152818161076e0152610a03015261100e5ff3fe608060405234801561000f575f5ffd5b50600436106100a7575f3560e01c8063853828b61161006f578063853828b6146101515780638da5cb5b1461016f578063b6b55f251461018d578063ef8b30f7146101bd578063f2fde38b146101ed578063f5eb42dc14610209576100a7565b80630a28a477146100ab5780632e1a7d4d146100db57806338d52e0f1461010b5780633a98ef3914610129578063715018a614610147575b5f5ffd5b6100c560048036038101906100c09190610ccd565b610239565b6040516100d29190610d07565b60405180910390f35b6100f560048036038101906100f09190610ccd565b61024a565b6040516101029190610d07565b60405180910390f35b610113610421565b6040516101209190610d9a565b60405180910390f35b610131610445565b60405161013e9190610d07565b60405180910390f35b61014f61044b565b005b61015961045e565b6040516101669190610d07565b60405180910390f35b6101776104e8565b6040516101849190610dd3565b60405180910390f35b6101a760048036038101906101a29190610ccd565b61050f565b6040516101b49190610d07565b60405180910390f35b6101d760048036038101906101d29190610ccd565b6106aa565b6040516101e49190610d07565b60405180910390f35b61020760048036038101906102029190610e16565b6106bb565b005b610223600480360381019061021e9190610e16565b61073f565b6040516102309190610d07565b60405180910390f35b5f61024382610754565b9050919050565b5f610253610822565b5f820361028c576040517f1f2a200500000000000000000000000000000000000000000000000000000000815260040160405180910390fd5b8160025f3373ffffffffffffffffffffffffffffffffffffffff1673ffffffffffffffffffffffffffffffffffffffff1681526020019081526020015f20541015610303576040517f3999656700000000000000000000000000000000000000000000000000000000815260040160405180910390fd5b61030c82610754565b90508160025f3373ffffffffffffffffffffffffffffffffffffffff1673ffffffffffffffffffffffffffffffffffffffff1681526020019081526020015f205f82825461035a9190610e6e565b925050819055508160015f8282546103729190610e6e565b925050819055506103c433827f000000000000000000000000000000000000000000000000000000000000000073ffffffffffffffffffffffffffffffffffffffff166108449092919063ffffffff16565b3373ffffffffffffffffffffffffffffffffffffffff167ff279e6a1f5e320cca91135676d9cb6e44ca8a08c0b88342bcdb1144f6511b568828460405161040c929190610ea1565b60405180910390a261041c610897565b919050565b7f000000000000000000000000000000000000000000000000000000000000000081565b60015481565b6104536108b1565b61045c5f610938565b565b5f5f60025f3373ffffffffffffffffffffffffffffffffffffffff1673ffffffffffffffffffffffffffffffffffffffff1681526020019081526020015f205490505f81036104d9576040517f1f2a200500000000000000000000000000000000000000000000000000000000815260040160405180910390fd5b6104e28161024a565b91505090565b5f5f5f9054906101000a900473ffffffffffffffffffffffffffffffffffffffff16905090565b5f610518610822565b5f8203610551576040517f1f2a200500000000000000000000000000000000000000000000000000000000815260040160405180910390fd5b61055a826109f9565b90505f8103610595576040517f9811e0c700000000000000000000000000000000000000000000000000000000815260040160405180910390fd5b8060025f3373ffffffffffffffffffffffffffffffffffffffff1673ffffffffffffffffffffffffffffffffffffffff1681526020019081526020015f205f8282546105e19190610ec8565b925050819055508060015f8282546105f99190610ec8565b9250508190555061064d3330847f000000000000000000000000000000000000000000000000000000000000000073ffffffffffffffffffffffffffffffffffffffff16610ad8909392919063ffffffff16565b3373ffffffffffffffffffffffffffffffffffffffff167f90890809c654f11d6e72a28fa60149770a0d11ec6c92319d6ceb2bb0a4ea1a158383604051610695929190610ea1565b60405180910390a26106a5610897565b919050565b5f6106b4826109f9565b9050919050565b6106c36108b1565b5f73ffffffffffffffffffffffffffffffffffffffff168173ffffffffffffffffffffffffffffffffffffffff1603610733575f6040517f1e4fbdf700000000000000000000000000000000000000000000000000000000815260040161072a9190610dd3565b60405180910390fd5b61073c81610938565b50565b6002602052805f5260405f205f915090505481565b5f5f60015490505f810361076b575f91505061081d565b807f000000000000000000000000000000000000000000000000000000000000000073ffffffffffffffffffffffffffffffffffffffff166370a08231306040518263ffffffff1660e01b81526004016107c59190610dd3565b602060405180830381865afa1580156107e0573d5f5f3e3d5ffd5b505050506040513d601f19601f820116820180604052508101906108049190610f0f565b8461080f9190610f3a565b6108199190610fa8565b9150505b919050565b61082a610b2d565b600261083c610837610b6e565b610b97565b5f0181905550565b6108518383836001610ba0565b61089257826040517f5274afe70000000000000000000000000000000000000000000000000000000081526004016108899190610dd3565b60405180910390fd5b505050565b60016108a96108a4610b6e565b610b97565b5f0181905550565b6108b9610c02565b73ffffffffffffffffffffffffffffffffffffffff166108d76104e8565b73ffffffffffffffffffffffffffffffffffffffff1614610936576108fa610c02565b6040517f118cdaa700000000000000000000000000000000000000000000000000000000815260040161092d9190610dd3565b60405180910390fd5b565b5f5f5f9054906101000a900473ffffffffffffffffffffffffffffffffffffffff169050815f5f6101000a81548173ffffffffffffffffffffffffffffffffffffffff021916908373ffffffffffffffffffffffffffffffffffffffff1602179055508173ffffffffffffffffffffffffffffffffffffffff168173ffffffffffffffffffffffffffffffffffffffff167f8be0079c531659141344cd1fd0a4f28419497f9722a3daafe3b4186f6b6457e060405160405180910390a35050565b5f5f60015490505f7f000000000000000000000000000000000000000000000000000000000000000073ffffffffffffffffffffffffffffffffffffffff166370a08231306040518263ffffffff1660e01b8152600401610a5a9190610dd3565b602060405180830381865afa158015610a75573d5f5f3e3d5ffd5b505050506040513d601f19601f82011682018060405250810190610a999190610f0f565b90505f821480610aa857505f81145b15610ab7578392505050610ad3565b808285610ac49190610f3a565b610ace9190610fa8565b925050505b919050565b610ae6848484846001610c09565b610b2757836040517f5274afe7000000000000000000000000000000000000000000000000000000008152600401610b1e9190610dd3565b60405180910390fd5b50505050565b610b35610c7a565b15610b6c576040517f3ee5aeb500000000000000000000000000000000000000000000000000000000815260040160405180910390fd5b565b5f7f9b779b17422d0df92223018b32b4d1fa46e071723d6817e2486d003becc55f005f1b905090565b5f819050919050565b5f5f63a9059cbb60e01b9050604051815f525f1960601c86166004528460245260205f60445f5f8b5af1925060015f51148316610bf4578383151615610be8573d5f823e3d81fd5b5f873b113d1516831692505b806040525050949350505050565b5f33905090565b5f5f6323b872dd60e01b9050604051815f525f1960601c87166004525f1960601c86166024528460445260205f60645f5f8c5af1925060015f51148316610c67578383151615610c5b573d5f823e3d81fd5b5f883b113d1516831692505b806040525f606052505095945050505050565b5f6002610c8d610c88610b6e565b610b97565b5f015414905090565b5f5ffd5b5f819050919050565b610cac81610c9a565b8114610cb6575f5ffd5b50565b5f81359050610cc781610ca3565b92915050565b5f60208284031215610ce257610ce1610c96565b5b5f610cef84828501610cb9565b91505092915050565b610d0181610c9a565b82525050565b5f602082019050610d1a5f830184610cf8565b92915050565b5f73ffffffffffffffffffffffffffffffffffffffff82169050919050565b5f819050919050565b5f610d62610d5d610d5884610d20565b610d3f565b610d20565b9050919050565b5f610d7382610d48565b9050919050565b5f610d8482610d69565b9050919050565b610d9481610d7a565b82525050565b5f602082019050610dad5f830184610d8b565b92915050565b5f610dbd82610d20565b9050919050565b610dcd81610db3565b82525050565b5f602082019050610de65f830184610dc4565b92915050565b610df581610db3565b8114610dff575f5ffd5b50565b5f81359050610e1081610dec565b92915050565b5f60208284031215610e2b57610e2a610c96565b5b5f610e3884828501610e02565b91505092915050565b7f4e487b71000000000000000000000000000000000000000000000000000000005f52601160045260245ffd5b5f610e7882610c9a565b9150610e8383610c9a565b9250828203905081811115610e9b57610e9a610e41565b5b92915050565b5f604082019050610eb45f830185610cf8565b610ec16020830184610cf8565b9392505050565b5f610ed282610c9a565b9150610edd83610c9a565b9250828201905080821115610ef557610ef4610e41565b5b92915050565b5f81519050610f0981610ca3565b92915050565b5f60208284031215610f2457610f23610c96565b5b5f610f3184828501610efb565b91505092915050565b5f610f4482610c9a565b9150610f4f83610c9a565b9250828202610f5d81610c9a565b91508282048414831517610f7457610f73610e41565b5b5092915050565b7f4e487b71000000000000000000000000000000000000000000000000000000005f52601260045260245ffd5b5f610fb282610c9a565b9150610fbd83610c9a565b925082610fcd57610fcc610f7b565b5b82820490509291505056fea2646970667358221220341aa8a45abaad812ed8da716499b662449cda63d913c43ddacc5133acb4a25f64736f6c63430008210033","linkReferences":{}},"methodIdentifiers":{"asset()":"38d52e0f","deposit(uint256)":"b6b55f25","owner()":"8da5cb5b","previewDeposit(uint256)":"ef8b30f7","previewWithdraw(uint256)":"0a28a477","renounceOwnership()":"715018a6","sharesOf(address)":"f5eb42dc","totalShares()":"3a98ef39","transferOwnership(address)":"f2fde38b","withdraw(uint256)":"2e1a7d4d","withdrawAll()":"853828b6"},"id":59}